{
	"data": {
		"bytecode": {
			"linkReferences": {},
			"object": "608060405234801561000f575f5ffd5b50335f73ffffffffffffffffffffffffffffffffffffffff168173ffffffffffffffffffffffffffffffffffffffff1603610081575f6040517f1e4fbdf70000000000000000000000000000000000000000000000000000000081526004016100789190610196565b60405180910390fd5b6100908161009660201b60201c565b506101af565b5f5f5f9054906101000a900473ffffffffffffffffffffffffffffffffffffffff169050815f5f6101000a81548173ffffffffffffffffffffffffffffffffffffffff021916908373ffffffffffffffffffffffffffffffffffffffff1602179055508173ffffffffffffffffffffffffffffffffffffffff168173ffffffffffffffffffffffffffffffffffffffff167f8be0079c531659141344cd1fd0a4f28419497f9722a3daafe3b4186f6b6457e060405160405180910390a35050565b5f73ffffffffffffffffffffffffffffffffffffffff82169050919050565b5f61018082610157565b9050919050565b61019081610176565b82525050565b5f6020820190506101a95f830184610187565b92915050565b6117cf806101bc5f395ff3fe60806040526004361061007a575f3560e01c80638da5cb5b1161004d5780638da5cb5b14610110578063bfb231d21461013a578063ed86827c1461017b578063f2fde38b146101975761007a565b80634ba1d6aa1461007e57806362d6bbdf146100a8578063715018a6146100d05780637749cf23146100e6575b5f5ffd5b348015610089575f5ffd5b506100926101bf565b60405161009f9190610db4565b60405180910390f35b3480156100b3575f5ffd5b506100ce60048036038101906100c99190610f3b565b6103be565b005b3480156100db575f5ffd5b506100e461057c565b005b3480156100f1575f5ffd5b506100fa61058f565b6040516101079190610fa4565b60405180910390f35b34801561011b575f5ffd5b5061012461059b565b6040516101319190610fcc565b60405180910390f35b348015610145575f5ffd5b50610160600480360381019061015b9190610fe5565b6105c2565b60405161017296959493929190611067565b60405180910390f35b610195600480360381019061019091906110d4565b610741565b005b3480156101a2575f5ffd5b506101bd60048036038101906101b89190611158565b6109b8565b005b60606001805480602002602001604051908101604052809291908181526020015f905b828210156103b5578382905f5260205f2090600502016040518060c00160405290815f820154815260200160018201805461021c906111b0565b80601f0160208091040260200160405190810160405280929190818152602001828054610248906111b0565b80156102935780601f1061026a57610100808354040283529160200191610293565b820191905f5260205f20905b81548152906001019060200180831161027657829003601f168201915b5050505050815260200160028201548152602001600382015f9054906101000a900460ff161515151581526020016003820160019054906101000a900473ffffffffffffffffffffffffffffffffffffffff1673ffffffffffffffffffffffffffffffffffffffff1673ffffffffffffffffffffffffffffffffffffffff168152602001600482018054610326906111b0565b80601f0160208091040260200160405190810160405280929190818152602001828054610352906111b0565b801561039d5780601f106103745761010080835404028352916020019161039d565b820191905f5260205f20905b81548152906001019060200180831161038057829003601f168201915b505050505081525050815260200190600101906101e2565b50505050905090565b6103c6610a3c565b5f8111610408576040517f08c379a00000000000000000000000000000000000000000000000000000000081526004016103ff9061122a565b60405180910390fd5b60016040518060c0016040528060018054905081526020018481526020018381526020015f151581526020015f73ffffffffffffffffffffffffffffffffffffffff16815260200160405180602001604052805f815250815250908060018154018082558091505060019003905f5260205f2090600502015f909190919091505f820151815f015560208201518160010190816104a591906113e8565b50604082015181600201556060820151816003015f6101000a81548160ff02191690831515021790555060808201518160030160016101000a81548173ffffffffffffffffffffffffffffffffffffffff021916908373ffffffffffffffffffffffffffffffffffffffff16021790555060a082015181600401908161052b91906113e8565b5050506001808054905061053f91906114e4565b7f0444434676a57f70f8479401c50fb4add3e31052f88f4b35e155b7759e5968e58383604051610570929190611517565b60405180910390a25050565b610584610a3c565b61058d5f610ac3565b565b5f600180549050905090565b5f5f5f9054906101000a900473ffffffffffffffffffffffffffffffffffffffff16905090565b600181815481106105d1575f80fd5b905f5260205f2090600502015f91509050805f0154908060010180546105f6906111b0565b80601f0160208091040260200160405190810160405280929190818152602001828054610622906111b0565b801561066d5780601f106106445761010080835404028352916020019161066d565b820191905f5260205f20905b81548152906001019060200180831161065057829003601f168201915b505050505090806002015490806003015f9054906101000a900460ff16908060030160019054906101000a900473ffffffffffffffffffffffffffffffffffffffff16908060040180546106c0906111b0565b80601f01602080910402602001604051908101604052809291908181526020018280546106ec906111b0565b80156107375780601f1061070e57610100808354040283529160200191610737565b820191905f5260205f20905b81548152906001019060200180831161071a57829003601f168201915b5050505050905086565b6001805490508210610788576040517f08c379a000000000000000000000000000000000000000000000000000000000815260040161077f9061158f565b60405180910390fd5b5f6001838154811061079d5761079c6115ad565b5b905f5260205f2090600502019050806003015f9054906101000a900460ff16156107fc576040517f08c379a00000000000000000000000000000000000000000000000000000000081526004016107f390611624565b60405180910390fd5b8060020154341015610843576040517f08c379a000000000000000000000000000000000000000000000000000000000815260040161083a906116b2565b60405180910390fd5b6001816003015f6101000a81548160ff021916908315150217905550338160030160016101000a81548173ffffffffffffffffffffffffffffffffffffffff021916908373ffffffffffffffffffffffffffffffffffffffff160217905550818160040190816108b391906113e8565b505f6108bd61059b565b73ffffffffffffffffffffffffffffffffffffffff16346040516108e0906116fd565b5f6040518083038185875af1925050503d805f811461091a576040519150601f19603f3d011682016040523d82523d5f602084013e61091f565b606091505b5050905080610963576040517f08c379a000000000000000000000000000000000000000000000000000000000815260040161095a9061175b565b60405180910390fd5b3373ffffffffffffffffffffffffffffffffffffffff16847f5949fad0353bcc34f4875375e7e7205a8ebce831edc822bd1369e5f30c212e6b856040516109aa9190611779565b60405180910390a350505050565b6109c0610a3c565b5f73ffffffffffffffffffffffffffffffffffffffff168173ffffffffffffffffffffffffffffffffffffffff1603610a30575f6040517f1e4fbdf7000000000000000000000000000000000000000000000000000000008152600401610a279190610fcc565b60405180910390fd5b610a3981610ac3565b50565b610a44610b84565b73ffffffffffffffffffffffffffffffffffffffff16610a6261059b565b73ffffffffffffffffffffffffffffffffffffffff1614610ac157610a85610b84565b6040517f118cdaa7000000000000000000000000000000000000000000000000000000008152600401610ab89190610fcc565b60405180910390fd5b565b5f5f5f9054906101000a900473ffffffffffffffffffffffffffffffffffffffff169050815f5f6101000a81548173ffffffffffffffffffffffffffffffffffffffff021916908373ffffffffffffffffffffffffffffffffffffffff1602179055508173ffffffffffffffffffffffffffffffffffffffff168173ffffffffffffffffffffffffffffffffffffffff167f8be0079c531659141344cd1fd0a4f28419497f9722a3daafe3b4186f6b6457e060405160405180910390a35050565b5f33905090565b5f81519050919050565b5f82825260208201905092915050565b5f819050602082019050919050565b5f819050919050565b610bc681610bb4565b82525050565b5f81519050919050565b5f82825260208201905092915050565b8281835e5f83830152505050565b5f601f19601f8301169050919050565b5f610c0e82610bcc565b610c188185610bd6565b9350610c28818560208601610be6565b610c3181610bf4565b840191505092915050565b5f8115159050919050565b610c5081610c3c565b82525050565b5f73ffffffffffffffffffffffffffffffffffffffff82169050919050565b5f610c7f82610c56565b9050919050565b610c8f81610c75565b82525050565b5f60c083015f830151610caa5f860182610bbd565b5060208301518482036020860152610cc28282610c04565b9150506040830151610cd76040860182610bbd565b506060830151610cea6060860182610c47565b506080830151610cfd6080860182610c86565b5060a083015184820360a0860152610d158282610c04565b9150508091505092915050565b5f610d2d8383610c95565b905092915050565b5f602082019050919050565b5f610d4b82610b8b565b610d558185610b95565b935083602082028501610d6785610ba5565b805f5b85811015610da25784840389528151610d838582610d22565b9450610d8e83610d35565b925060208a01995050600181019050610d6a565b50829750879550505050505092915050565b5f6020820190508181035f830152610dcc8184610d41565b905092915050565b5f604051905090565b5f5ffd5b5f5ffd5b5f5ffd5b5f5ffd5b7f4e487b71000000000000000000000000000000000000000000000000000000005f52604160045260245ffd5b610e2382610bf4565b810181811067ffffffffffffffff82111715610e4257610e41610ded565b5b80604052505050565b5f610e54610dd4565b9050610e608282610e1a565b919050565b5f67ffffffffffffffff821115610e7f57610e7e610ded565b5b610e8882610bf4565b9050602081019050919050565b828183375f83830152505050565b5f610eb5610eb084610e65565b610e4b565b905082815260208101848484011115610ed157610ed0610de9565b5b610edc848285610e95565b509392505050565b5f82601f830112610ef857610ef7610de5565b5b8135610f08848260208601610ea3565b91505092915050565b610f1a81610bb4565b8114610f24575f5ffd5b50565b5f81359050610f3581610f11565b92915050565b5f5f60408385031215610f5157610f50610ddd565b5b5f83013567ffffffffffffffff811115610f6e57610f6d610de1565b5b610f7a85828601610ee4565b9250506020610f8b85828601610f27565b9150509250929050565b610f9e81610bb4565b82525050565b5f602082019050610fb75f830184610f95565b92915050565b610fc681610c75565b82525050565b5f602082019050610fdf5f830184610fbd565b92915050565b5f60208284031215610ffa57610ff9610ddd565b5b5f61100784828501610f27565b91505092915050565b5f82825260208201905092915050565b5f61102a82610bcc565b6110348185611010565b9350611044818560208601610be6565b61104d81610bf4565b840191505092915050565b61106181610c3c565b82525050565b5f60c08201905061107a5f830189610f95565b818103602083015261108c8188611020565b905061109b6040830187610f95565b6110a86060830186611058565b6110b56080830185610fbd565b81810360a08301526110c78184611020565b9050979650505050505050565b5f5f604083850312156110ea576110e9610ddd565b5b5f6110f785828601610f27565b925050602083013567ffffffffffffffff81111561111857611117610de1565b5b61112485828601610ee4565b9150509250929050565b61113781610c75565b8114611141575f5ffd5b50565b5f813590506111528161112e565b92915050565b5f6020828403121561116d5761116c610ddd565b5b5f61117a84828501611144565b91505092915050565b7f4e487b71000000000000000000000000000000000000000000000000000000005f52602260045260245ffd5b5f60028204905060018216806111c757607f821691505b6020821081036111da576111d9611183565b5b50919050565b7f5072696365206d757374206265203e20300000000000000000000000000000005f82015250565b5f611214601183611010565b915061121f826111e0565b602082019050919050565b5f6020820190508181035f83015261124181611208565b9050919050565b5f819050815f5260205f209050919050565b5f6020601f8301049050919050565b5f82821b905092915050565b5f600883026112a47fffffffffffffffffffffffffffffffffffffffffffffffffffffffffffffffff82611269565b6112ae8683611269565b95508019841693508086168417925050509392505050565b5f819050919050565b5f6112e96112e46112df84610bb4565b6112c6565b610bb4565b9050919050565b5f819050919050565b611302836112cf565b61131661130e826112f0565b848454611275565b825550505050565b5f5f905090565b61132d61131e565b6113388184846112f9565b505050565b5b8181101561135b576113505f82611325565b60018101905061133e565b5050565b601f8211156113a05761137181611248565b61137a8461125a565b81016020851015611389578190505b61139d6113958561125a565b83018261133d565b50505b505050565b5f82821c905092915050565b5f6113c05f19846008026113a5565b1980831691505092915050565b5f6113d883836113b1565b9150826002028217905092915050565b6113f182610bcc565b67ffffffffffffffff81111561140a57611409610ded565b5b61141482546111b0565b61141f82828561135f565b5f60209050601f831160018114611450575f841561143e578287015190505b61144885826113cd565b8655506114af565b601f19841661145e86611248565b5f5b8281101561148557848901518255600182019150602085019450602081019050611460565b868310156114a2578489015161149e601f8916826113b1565b8355505b6001600288020188555050505b505050505050565b7f4e487b71000000000000000000000000000000000000000000000000000000005f52601160045260245ffd5b5f6114ee82610bb4565b91506114f983610bb4565b9250828203905081811115611511576115106114b7565b5b92915050565b5f6040820190508181035f83015261152f8185611020565b905061153e6020830184610f95565b9392505050565b7f4974656d20646f6573206e6f74206578697374000000000000000000000000005f82015250565b5f611579601383611010565b915061158482611545565b602082019050919050565b5f6020820190508181035f8301526115a68161156d565b9050919050565b7f4e487b71000000000000000000000000000000000000000000000000000000005f52603260045260245ffd5b7f4974656d20616c726561647920676966746564210000000000000000000000005f82015250565b5f61160e601483611010565b9150611619826115da565b602082019050919050565b5f6020820190508181035f83015261163b81611602565b9050919050565b7f496e73756666696369656e74204554482073656e7420666f72207468697320695f8201527f74656d0000000000000000000000000000000000000000000000000000000000602082015250565b5f61169c602383611010565b91506116a782611642565b604082019050919050565b5f6020820190508181035f8301526116c981611690565b9050919050565b5f81905092915050565b50565b5f6116e85f836116d0565b91506116f3826116da565b5f82019050919050565b5f611707826116dd565b9150819050919050565b7f5472616e7366657220746f206f776e6572206661696c656400000000000000005f82015250565b5f611745601883611010565b915061175082611711565b602082019050919050565b5f6020820190508181035f83015261177281611739565b9050919050565b5f6020820190508181035f8301526117918184611020565b90509291505056fea26469706673582212208572baf952d5491c9ad082f540265ed2fc6f417f10bc9d59ccfeae35cda0d14d64736f6c634300081f0033",
			"opcodes": "PUSH1 0x80 PUSH1 0x40 MSTORE CALLVALUE DUP1 ISZERO PUSH2 0xF JUMPI PUSH0 PUSH0 REVERT JUMPDEST POP CALLER PUSH0 PUSH20 0xFFFFFFFFFFFFFFFFFFFFFFFFFFFFFFFFFFFFFFFF AND DUP2 PUSH20 0xFFFFFFFFFFFFFFFFFFFFFFFFFFFFFFFFFFFFFFFF AND SUB PUSH2 0x81 JUMPI PUSH0 PUSH1 0x40 MLOAD PUSH32 0x1E4FBDF700000000000000000000000000000000000000000000000000000000 DUP2 MSTORE PUSH1 0x4 ADD PUSH2 0x78 SWAP2 SWAP1 PUSH2 0x196 JUMP JUMPDEST PUSH1 0x40 MLOAD DUP1 SWAP2 SUB SWAP1 REVERT JUMPDEST PUSH2 0x90 DUP2 PUSH2 0x96 PUSH1 0x20 SHL PUSH1 0x20 SHR JUMP JUMPDEST POP PUSH2 0x1AF JUMP JUMPDEST PUSH0 PUSH0 PUSH0 SWAP1 SLOAD SWAP1 PUSH2 0x100 EXP SWAP1 DIV PUSH20 0xFFFFFFFFFFFFFFFFFFFFFFFFFFFFFFFFFFFFFFFF AND SWAP1 POP DUP2 PUSH0 PUSH0 PUSH2 0x100 EXP DUP2 SLOAD DUP2 PUSH20 0xFFFFFFFFFFFFFFFFFFFFFFFFFFFFFFFFFFFFFFFF MUL NOT AND SWAP1 DUP4 PUSH20 0xFFFFFFFFFFFFFFFFFFFFFFFFFFFFFFFFFFFFFFFF AND MUL OR SWAP1 SSTORE POP DUP2 PUSH20 0xFFFFFFFFFFFFFFFFFFFFFFFFFFFFFFFFFFFFFFFF AND DUP2 PUSH20 0xFFFFFFFFFFFFFFFFFFFFFFFFFFFFFFFFFFFFFFFF AND PUSH32 0x8BE0079C531659141344CD1FD0A4F28419497F9722A3DAAFE3B4186F6B6457E0 PUSH1 0x40 MLOAD PUSH1 0x40 MLOAD DUP1 SWAP2 SUB SWAP1 LOG3 POP POP JUMP JUMPDEST PUSH0 PUSH20 0xFFFFFFFFFFFFFFFFFFFFFFFFFFFFFFFFFFFFFFFF DUP3 AND SWAP1 POP SWAP2 SWAP1 POP JUMP JUMPDEST PUSH0 PUSH2 0x180 DUP3 PUSH2 0x157 JUMP JUMPDEST SWAP1 POP SWAP2 SWAP1 POP JUMP JUMPDEST PUSH2 0x190 DUP2 PUSH2 0x176 JUMP JUMPDEST DUP3 MSTORE POP POP JUMP JUMPDEST PUSH0 PUSH1 0x20 DUP3 ADD SWAP1 POP PUSH2 0x1A9 PUSH0 DUP4 ADD DUP5 PUSH2 0x187 JUMP JUMPDEST SWAP3 SWAP2 POP POP JUMP JUMPDEST PUSH2 0x17CF DUP1 PUSH2 0x1BC PUSH0 CODECOPY PUSH0 RETURN INVALID PUSH1 0x80 PUSH1 0x40 MSTORE PUSH1 0x4 CALLDATASIZE LT PUSH2 0x7A JUMPI PUSH0 CALLDATALOAD PUSH1 0xE0 SHR DUP1 PUSH4 0x8DA5CB5B GT PUSH2 0x4D JUMPI DUP1 PUSH4 0x8DA5CB5B EQ PUSH2 0x110 JUMPI DUP1 PUSH4 0xBFB231D2 EQ PUSH2 0x13A JUMPI DUP1 PUSH4 0xED86827C EQ PUSH2 0x17B JUMPI DUP1 PUSH4 0xF2FDE38B EQ PUSH2 0x197 JUMPI PUSH2 0x7A JUMP JUMPDEST DUP1 PUSH4 0x4BA1D6AA EQ PUSH2 0x7E JUMPI DUP1 PUSH4 0x62D6BBDF EQ PUSH2 0xA8 JUMPI DUP1 PUSH4 0x715018A6 EQ PUSH2 0xD0 JUMPI DUP1 PUSH4 0x7749CF23 EQ PUSH2 0xE6 JUMPI JUMPDEST PUSH0 PUSH0 REVERT JUMPDEST CALLVALUE DUP1 ISZERO PUSH2 0x89 JUMPI PUSH0 PUSH0 REVERT JUMPDEST POP PUSH2 0x92 PUSH2 0x1BF JUMP JUMPDEST PUSH1 0x40 MLOAD PUSH2 0x9F SWAP2 SWAP1 PUSH2 0xDB4 JUMP JUMPDEST PUSH1 0x40 MLOAD DUP1 SWAP2 SUB SWAP1 RETURN JUMPDEST CALLVALUE DUP1 ISZERO PUSH2 0xB3 JUMPI PUSH0 PUSH0 REVERT JUMPDEST POP PUSH2 0xCE PUSH1 0x4 DUP1 CALLDATASIZE SUB DUP2 ADD SWAP1 PUSH2 0xC9 SWAP2 SWAP1 PUSH2 0xF3B JUMP JUMPDEST PUSH2 0x3BE JUMP JUMPDEST STOP JUMPDEST CALLVALUE DUP1 ISZERO PUSH2 0xDB JUMPI PUSH0 PUSH0 REVERT JUMPDEST POP PUSH2 0xE4 PUSH2 0x57C JUMP JUMPDEST STOP JUMPDEST CALLVALUE DUP1 ISZERO PUSH2 0xF1 JUMPI PUSH0 PUSH0 REVERT JUMPDEST POP PUSH2 0xFA PUSH2 0x58F JUMP JUMPDEST PUSH1 0x40 MLOAD PUSH2 0x107 SWAP2 SWAP1 PUSH2 0xFA4 JUMP JUMPDEST PUSH1 0x40 MLOAD DUP1 SWAP2 SUB SWAP1 RETURN JUMPDEST CALLVALUE DUP1 ISZERO PUSH2 0x11B JUMPI PUSH0 PUSH0 REVERT JUMPDEST POP PUSH2 0x124 PUSH2 0x59B JUMP JUMPDEST PUSH1 0x40 MLOAD PUSH2 0x131 SWAP2 SWAP1 PUSH2 0xFCC JUMP JUMPDEST PUSH1 0x40 MLOAD DUP1 SWAP2 SUB SWAP1 RETURN JUMPDEST CALLVALUE DUP1 ISZERO PUSH2 0x145 JUMPI PUSH0 PUSH0 REVERT JUMPDEST POP PUSH2 0x160 PUSH1 0x4 DUP1 CALLDATASIZE SUB DUP2 ADD SWAP1 PUSH2 0x15B SWAP2 SWAP1 PUSH2 0xFE5 JUMP JUMPDEST PUSH2 0x5C2 JUMP JUMPDEST PUSH1 0x40 MLOAD PUSH2 0x172 SWAP7 SWAP6 SWAP5 SWAP4 SWAP3 SWAP2 SWAP1 PUSH2 0x1067 JUMP JUMPDEST PUSH1 0x40 MLOAD DUP1 SWAP2 SUB SWAP1 RETURN JUMPDEST PUSH2 0x195 PUSH1 0x4 DUP1 CALLDATASIZE SUB DUP2 ADD SWAP1 PUSH2 0x190 SWAP2 SWAP1 PUSH2 0x10D4 JUMP JUMPDEST PUSH2 0x741 JUMP JUMPDEST STOP JUMPDEST CALLVALUE DUP1 ISZERO PUSH2 0x1A2 JUMPI PUSH0 PUSH0 REVERT JUMPDEST POP PUSH2 0x1BD PUSH1 0x4 DUP1 CALLDATASIZE SUB DUP2 ADD SWAP1 PUSH2 0x1B8 SWAP2 SWAP1 PUSH2 0x1158 JUMP JUMPDEST PUSH2 0x9B8 JUMP JUMPDEST STOP JUMPDEST PUSH1 0x60 PUSH1 0x1 DUP1 SLOAD DUP1 PUSH1 0x20 MUL PUSH1 0x20 ADD PUSH1 0x40 MLOAD SWAP1 DUP2 ADD PUSH1 0x40 MSTORE DUP1 SWAP3 SWAP2 SWAP1 DUP2 DUP2 MSTORE PUSH1 0x20 ADD PUSH0 SWAP1 JUMPDEST DUP3 DUP3 LT ISZERO PUSH2 0x3B5 JUMPI DUP4 DUP3 SWAP1 PUSH0 MSTORE PUSH1 0x20 PUSH0 KECCAK256 SWAP1 PUSH1 0x5 MUL ADD PUSH1 0x40 MLOAD DUP1 PUSH1 0xC0 ADD PUSH1 0x40 MSTORE SWAP1 DUP2 PUSH0 DUP3 ADD SLOAD DUP2 MSTORE PUSH1 0x20 ADD PUSH1 0x1 DUP3 ADD DUP1 SLOAD PUSH2 0x21C SWAP1 PUSH2 0x11B0 JUMP JUMPDEST DUP1 PUSH1 0x1F ADD PUSH1 0x20 DUP1 SWAP2 DIV MUL PUSH1 0x20 ADD PUSH1 0x40 MLOAD SWAP1 DUP2 ADD PUSH1 0x40 MSTORE DUP1 SWAP3 SWAP2 SWAP1 DUP2 DUP2 MSTORE PUSH1 0x20 ADD DUP3 DUP1 SLOAD PUSH2 0x248 SWAP1 PUSH2 0x11B0 JUMP JUMPDEST DUP1 ISZERO PUSH2 0x293 JUMPI DUP1 PUSH1 0x1F LT PUSH2 0x26A JUMPI PUSH2 0x100 DUP1 DUP4 SLOAD DIV MUL DUP4 MSTORE SWAP2 PUSH1 0x20 ADD SWAP2 PUSH2 0x293 JUMP JUMPDEST DUP3 ADD SWAP2 SWAP1 PUSH0 MSTORE PUSH1 0x20 PUSH0 KECCAK256 SWAP1 JUMPDEST DUP2 SLOAD DUP2 MSTORE SWAP1 PUSH1 0x1 ADD SWAP1 PUSH1 0x20 ADD DUP1 DUP4 GT PUSH2 0x276 JUMPI DUP3 SWAP1 SUB PUSH1 0x1F AND DUP3 ADD SWAP2 JUMPDEST POP POP POP POP POP DUP2 MSTORE PUSH1 0x20 ADD PUSH1 0x2 DUP3 ADD SLOAD DUP2 MSTORE PUSH1 0x20 ADD PUSH1 0x3 DUP3 ADD PUSH0 SWAP1 SLOAD SWAP1 PUSH2 0x100 EXP SWAP1 DIV PUSH1 0xFF AND ISZERO ISZERO ISZERO ISZERO DUP2 MSTORE PUSH1 0x20 ADD PUSH1 0x3 DUP3 ADD PUSH1 0x1 SWAP1 SLOAD SWAP1 PUSH2 0x100 EXP SWAP1 DIV PUSH20 0xFFFFFFFFFFFFFFFFFFFFFFFFFFFFFFFFFFFFFFFF AND PUSH20 0xFFFFFFFFFFFFFFFFFFFFFFFFFFFFFFFFFFFFFFFF AND PUSH20 0xFFFFFFFFFFFFFFFFFFFFFFFFFFFFFFFFFFFFFFFF AND DUP2 MSTORE PUSH1 0x20 ADD PUSH1 0x4 DUP3 ADD DUP1 SLOAD PUSH2 0x326 SWAP1 PUSH2 0x11B0 JUMP JUMPDEST DUP1 PUSH1 0x1F ADD PUSH1 0x20 DUP1 SWAP2 DIV MUL PUSH1 0x20 ADD PUSH1 0x40 MLOAD SWAP1 DUP2 ADD PUSH1 0x40 MSTORE DUP1 SWAP3 SWAP2 SWAP1 DUP2 DUP2 MSTORE PUSH1 0x20 ADD DUP3 DUP1 SLOAD PUSH2 0x352 SWAP1 PUSH2 0x11B0 JUMP JUMPDEST DUP1 ISZERO PUSH2 0x39D JUMPI DUP1 PUSH1 0x1F LT PUSH2 0x374 JUMPI PUSH2 0x100 DUP1 DUP4 SLOAD DIV MUL DUP4 MSTORE SWAP2 PUSH1 0x20 ADD SWAP2 PUSH2 0x39D JUMP JUMPDEST DUP3 ADD SWAP2 SWAP1 PUSH0 MSTORE PUSH1 0x20 PUSH0 KECCAK256 SWAP1 JUMPDEST DUP2 SLOAD DUP2 MSTORE SWAP1 PUSH1 0x1 ADD SWAP1 PUSH1 0x20 ADD DUP1 DUP4 GT PUSH2 0x380 JUMPI DUP3 SWAP1 SUB PUSH1 0x1F AND DUP3 ADD SWAP2 JUMPDEST POP POP POP POP POP DUP2 MSTORE POP POP DUP2 MSTORE PUSH1 0x20 ADD SWAP1 PUSH1 0x1 ADD SWAP1 PUSH2 0x1E2 JUMP JUMPDEST POP POP POP POP SWAP1 POP SWAP1 JUMP JUMPDEST PUSH2 0x3C6 PUSH2 0xA3C JUMP JUMPDEST PUSH0 DUP2 GT PUSH2 0x408 JUMPI PUSH1 0x40 MLOAD PUSH32 0x8C379A000000000000000000000000000000000000000000000000000000000 DUP2 MSTORE PUSH1 0x4 ADD PUSH2 0x3FF SWAP1 PUSH2 0x122A JUMP JUMPDEST PUSH1 0x40 MLOAD DUP1 SWAP2 SUB SWAP1 REVERT JUMPDEST PUSH1 0x1 PUSH1 0x40 MLOAD DUP1 PUSH1 0xC0 ADD PUSH1 0x40 MSTORE DUP1 PUSH1 0x1 DUP1 SLOAD SWAP1 POP DUP2 MSTORE PUSH1 0x20 ADD DUP5 DUP2 MSTORE PUSH1 0x20 ADD DUP4 DUP2 MSTORE PUSH1 0x20 ADD PUSH0 ISZERO ISZERO DUP2 MSTORE PUSH1 0x20 ADD PUSH0 PUSH20 0xFFFFFFFFFFFFFFFFFFFFFFFFFFFFFFFFFFFFFFFF AND DUP2 MSTORE PUSH1 0x20 ADD PUSH1 0x40 MLOAD DUP1 PUSH1 0x20 ADD PUSH1 0x40 MSTORE DUP1 PUSH0 DUP2 MSTORE POP DUP2 MSTORE POP SWAP1 DUP1 PUSH1 0x1 DUP2 SLOAD ADD DUP1 DUP3 SSTORE DUP1 SWAP2 POP POP PUSH1 0x1 SWAP1 SUB SWAP1 PUSH0 MSTORE PUSH1 0x20 PUSH0 KECCAK256 SWAP1 PUSH1 0x5 MUL ADD PUSH0 SWAP1 SWAP2 SWAP1 SWAP2 SWAP1 SWAP2 POP PUSH0 DUP3 ADD MLOAD DUP2 PUSH0 ADD SSTORE PUSH1 0x20 DUP3 ADD MLOAD DUP2 PUSH1 0x1 ADD SWAP1 DUP2 PUSH2 0x4A5 SWAP2 SWAP1 PUSH2 0x13E8 JUMP JUMPDEST POP PUSH1 0x40 DUP3 ADD MLOAD DUP2 PUSH1 0x2 ADD SSTORE PUSH1 0x60 DUP3 ADD MLOAD DUP2 PUSH1 0x3 ADD PUSH0 PUSH2 0x100 EXP DUP2 SLOAD DUP2 PUSH1 0xFF MUL NOT AND SWAP1 DUP4 ISZERO ISZERO MUL OR SWAP1 SSTORE POP PUSH1 0x80 DUP3 ADD MLOAD DUP2 PUSH1 0x3 ADD PUSH1 0x1 PUSH2 0x100 EXP DUP2 SLOAD DUP2 PUSH20 0xFFFFFFFFFFFFFFFFFFFFFFFFFFFFFFFFFFFFFFFF MUL NOT AND SWAP1 DUP4 PUSH20 0xFFFFFFFFFFFFFFFFFFFFFFFFFFFFFFFFFFFFFFFF AND MUL OR SWAP1 SSTORE POP PUSH1 0xA0 DUP3 ADD MLOAD DUP2 PUSH1 0x4 ADD SWAP1 DUP2 PUSH2 0x52B SWAP2 SWAP1 PUSH2 0x13E8 JUMP JUMPDEST POP POP POP PUSH1 0x1 DUP1 DUP1 SLOAD SWAP1 POP PUSH2 0x53F SWAP2 SWAP1 PUSH2 0x14E4 JUMP JUMPDEST PUSH32 0x444434676A57F70F8479401C50FB4ADD3E31052F88F4B35E155B7759E5968E5 DUP4 DUP4 PUSH1 0x40 MLOAD PUSH2 0x570 SWAP3 SWAP2 SWAP1 PUSH2 0x1517 JUMP JUMPDEST PUSH1 0x40 MLOAD DUP1 SWAP2 SUB SWAP1 LOG2 POP POP JUMP JUMPDEST PUSH2 0x584 PUSH2 0xA3C JUMP JUMPDEST PUSH2 0x58D PUSH0 PUSH2 0xAC3 JUMP JUMPDEST JUMP JUMPDEST PUSH0 PUSH1 0x1 DUP1 SLOAD SWAP1 POP SWAP1 POP SWAP1 JUMP JUMPDEST PUSH0 PUSH0 PUSH0 SWAP1 SLOAD SWAP1 PUSH2 0x100 EXP SWAP1 DIV PUSH20 0xFFFFFFFFFFFFFFFFFFFFFFFFFFFFFFFFFFFFFFFF AND SWAP1 POP SWAP1 JUMP JUMPDEST PUSH1 0x1 DUP2 DUP2 SLOAD DUP2 LT PUSH2 0x5D1 JUMPI PUSH0 DUP1 REVERT JUMPDEST SWAP1 PUSH0 MSTORE PUSH1 0x20 PUSH0 KECCAK256 SWAP1 PUSH1 0x5 MUL ADD PUSH0 SWAP2 POP SWAP1 POP DUP1 PUSH0 ADD SLOAD SWAP1 DUP1 PUSH1 0x1 ADD DUP1 SLOAD PUSH2 0x5F6 SWAP1 PUSH2 0x11B0 JUMP JUMPDEST DUP1 PUSH1 0x1F ADD PUSH1 0x20 DUP1 SWAP2 DIV MUL PUSH1 0x20 ADD PUSH1 0x40 MLOAD SWAP1 DUP2 ADD PUSH1 0x40 MSTORE DUP1 SWAP3 SWAP2 SWAP1 DUP2 DUP2 MSTORE PUSH1 0x20 ADD DUP3 DUP1 SLOAD PUSH2 0x622 SWAP1 PUSH2 0x11B0 JUMP JUMPDEST DUP1 ISZERO PUSH2 0x66D JUMPI DUP1 PUSH1 0x1F LT PUSH2 0x644 JUMPI PUSH2 0x100 DUP1 DUP4 SLOAD DIV MUL DUP4 MSTORE SWAP2 PUSH1 0x20 ADD SWAP2 PUSH2 0x66D JUMP JUMPDEST DUP3 ADD SWAP2 SWAP1 PUSH0 MSTORE PUSH1 0x20 PUSH0 KECCAK256 SWAP1 JUMPDEST DUP2 SLOAD DUP2 MSTORE SWAP1 PUSH1 0x1 ADD SWAP1 PUSH1 0x20 ADD DUP1 DUP4 GT PUSH2 0x650 JUMPI DUP3 SWAP1 SUB PUSH1 0x1F AND DUP3 ADD SWAP2 JUMPDEST POP POP POP POP POP SWAP1 DUP1 PUSH1 0x2 ADD SLOAD SWAP1 DUP1 PUSH1 0x3 ADD PUSH0 SWAP1 SLOAD SWAP1 PUSH2 0x100 EXP SWAP1 DIV PUSH1 0xFF AND SWAP1 DUP1 PUSH1 0x3 ADD PUSH1 0x1 SWAP1 SLOAD SWAP1 PUSH2 0x100 EXP SWAP1 DIV PUSH20 0xFFFFFFFFFFFFFFFFFFFFFFFFFFFFFFFFFFFFFFFF AND SWAP1 DUP1 PUSH1 0x4 ADD DUP1 SLOAD PUSH2 0x6C0 SWAP1 PUSH2 0x11B0 JUMP JUMPDEST DUP1 PUSH1 0x1F ADD PUSH1 0x20 DUP1 SWAP2 DIV MUL PUSH1 0x20 ADD PUSH1 0x40 MLOAD SWAP1 DUP2 ADD PUSH1 0x40 MSTORE DUP1 SWAP3 SWAP2 SWAP1 DUP2 DUP2 MSTORE PUSH1 0x20 ADD DUP3 DUP1 SLOAD PUSH2 0x6EC SWAP1 PUSH2 0x11B0 JUMP JUMPDEST DUP1 ISZERO PUSH2 0x737 JUMPI DUP1 PUSH1 0x1F LT PUSH2 0x70E JUMPI PUSH2 0x100 DUP1 DUP4 SLOAD DIV MUL DUP4 MSTORE SWAP2 PUSH1 0x20 ADD SWAP2 PUSH2 0x737 JUMP JUMPDEST DUP3 ADD SWAP2 SWAP1 PUSH0 MSTORE PUSH1 0x20 PUSH0 KECCAK256 SWAP1 JUMPDEST DUP2 SLOAD DUP2 MSTORE SWAP1 PUSH1 0x1 ADD SWAP1 PUSH1 0x20 ADD DUP1 DUP4 GT PUSH2 0x71A JUMPI DUP3 SWAP1 SUB PUSH1 0x1F AND DUP3 ADD SWAP2 JUMPDEST POP POP POP POP POP SWAP1 POP DUP7 JUMP JUMPDEST PUSH1 0x1 DUP1 SLOAD SWAP1 POP DUP3 LT PUSH2 0x788 JUMPI PUSH1 0x40 MLOAD PUSH32 0x8C379A000000000000000000000000000000000000000000000000000000000 DUP2 MSTORE PUSH1 0x4 ADD PUSH2 0x77F SWAP1 PUSH2 0x158F JUMP JUMPDEST PUSH1 0x40 MLOAD DUP1 SWAP2 SUB SWAP1 REVERT JUMPDEST PUSH0 PUSH1 0x1 DUP4 DUP2 SLOAD DUP2 LT PUSH2 0x79D JUMPI PUSH2 0x79C PUSH2 0x15AD JUMP JUMPDEST JUMPDEST SWAP1 PUSH0 MSTORE PUSH1 0x20 PUSH0 KECCAK256 SWAP1 PUSH1 0x5 MUL ADD SWAP1 POP DUP1 PUSH1 0x3 ADD PUSH0 SWAP1 SLOAD SWAP1 PUSH2 0x100 EXP SWAP1 DIV PUSH1 0xFF AND ISZERO PUSH2 0x7FC JUMPI PUSH1 0x40 MLOAD PUSH32 0x8C379A000000000000000000000000000000000000000000000000000000000 DUP2 MSTORE PUSH1 0x4 ADD PUSH2 0x7F3 SWAP1 PUSH2 0x1624 JUMP JUMPDEST PUSH1 0x40 MLOAD DUP1 SWAP2 SUB SWAP1 REVERT JUMPDEST DUP1 PUSH1 0x2 ADD SLOAD CALLVALUE LT ISZERO PUSH2 0x843 JUMPI PUSH1 0x40 MLOAD PUSH32 0x8C379A000000000000000000000000000000000000000000000000000000000 DUP2 MSTORE PUSH1 0x4 ADD PUSH2 0x83A SWAP1 PUSH2 0x16B2 JUMP JUMPDEST PUSH1 0x40 MLOAD DUP1 SWAP2 SUB SWAP1 REVERT JUMPDEST PUSH1 0x1 DUP2 PUSH1 0x3 ADD PUSH0 PUSH2 0x100 EXP DUP2 SLOAD DUP2 PUSH1 0xFF MUL NOT AND SWAP1 DUP4 ISZERO ISZERO MUL OR SWAP1 SSTORE POP CALLER DUP2 PUSH1 0x3 ADD PUSH1 0x1 PUSH2 0x100 EXP DUP2 SLOAD DUP2 PUSH20 0xFFFFFFFFFFFFFFFFFFFFFFFFFFFFFFFFFFFFFFFF MUL NOT AND SWAP1 DUP4 PUSH20 0xFFFFFFFFFFFFFFFFFFFFFFFFFFFFFFFFFFFFFFFF AND MUL OR SWAP1 SSTORE POP DUP2 DUP2 PUSH1 0x4 ADD SWAP1 DUP2 PUSH2 0x8B3 SWAP2 SWAP1 PUSH2 0x13E8 JUMP JUMPDEST POP PUSH0 PUSH2 0x8BD PUSH2 0x59B JUMP JUMPDEST PUSH20 0xFFFFFFFFFFFFFFFFFFFFFFFFFFFFFFFFFFFFFFFF AND CALLVALUE PUSH1 0x40 MLOAD PUSH2 0x8E0 SWAP1 PUSH2 0x16FD JUMP JUMPDEST PUSH0 PUSH1 0x40 MLOAD DUP1 DUP4 SUB DUP2 DUP6 DUP8 GAS CALL SWAP3 POP POP POP RETURNDATASIZE DUP1 PUSH0 DUP2 EQ PUSH2 0x91A JUMPI PUSH1 0x40 MLOAD SWAP2 POP PUSH1 0x1F NOT PUSH1 0x3F RETURNDATASIZE ADD AND DUP3 ADD PUSH1 0x40 MSTORE RETURNDATASIZE DUP3 MSTORE RETURNDATASIZE PUSH0 PUSH1 0x20 DUP5 ADD RETURNDATACOPY PUSH2 0x91F JUMP JUMPDEST PUSH1 0x60 SWAP2 POP JUMPDEST POP POP SWAP1 POP DUP1 PUSH2 0x963 JUMPI PUSH1 0x40 MLOAD PUSH32 0x8C379A000000000000000000000000000000000000000000000000000000000 DUP2 MSTORE PUSH1 0x4 ADD PUSH2 0x95A SWAP1 PUSH2 0x175B JUMP JUMPDEST PUSH1 0x40 MLOAD DUP1 SWAP2 SUB SWAP1 REVERT JUMPDEST CALLER PUSH20 0xFFFFFFFFFFFFFFFFFFFFFFFFFFFFFFFFFFFFFFFF AND DUP5 PUSH32 0x5949FAD0353BCC34F4875375E7E7205A8EBCE831EDC822BD1369E5F30C212E6B DUP6 PUSH1 0x40 MLOAD PUSH2 0x9AA SWAP2 SWAP1 PUSH2 0x1779 JUMP JUMPDEST PUSH1 0x40 MLOAD DUP1 SWAP2 SUB SWAP1 LOG3 POP POP POP POP JUMP JUMPDEST PUSH2 0x9C0 PUSH2 0xA3C JUMP JUMPDEST PUSH0 PUSH20 0xFFFFFFFFFFFFFFFFFFFFFFFFFFFFFFFFFFFFFFFF AND DUP2 PUSH20 0xFFFFFFFFFFFFFFFFFFFFFFFFFFFFFFFFFFFFFFFF AND SUB PUSH2 0xA30 JUMPI PUSH0 PUSH1 0x40 MLOAD PUSH32 0x1E4FBDF700000000000000000000000000000000000000000000000000000000 DUP2 MSTORE PUSH1 0x4 ADD PUSH2 0xA27 SWAP2 SWAP1 PUSH2 0xFCC JUMP JUMPDEST PUSH1 0x40 MLOAD DUP1 SWAP2 SUB SWAP1 REVERT JUMPDEST PUSH2 0xA39 DUP2 PUSH2 0xAC3 JUMP JUMPDEST POP JUMP JUMPDEST PUSH2 0xA44 PUSH2 0xB84 JUMP JUMPDEST PUSH20 0xFFFFFFFFFFFFFFFFFFFFFFFFFFFFFFFFFFFFFFFF AND PUSH2 0xA62 PUSH2 0x59B JUMP JUMPDEST PUSH20 0xFFFFFFFFFFFFFFFFFFFFFFFFFFFFFFFFFFFFFFFF AND EQ PUSH2 0xAC1 JUMPI PUSH2 0xA85 PUSH2 0xB84 JUMP JUMPDEST PUSH1 0x40 MLOAD PUSH32 0x118CDAA700000000000000000000000000000000000000000000000000000000 DUP2 MSTORE PUSH1 0x4 ADD PUSH2 0xAB8 SWAP2 SWAP1 PUSH2 0xFCC JUMP JUMPDEST PUSH1 0x40 MLOAD DUP1 SWAP2 SUB SWAP1 REVERT JUMPDEST JUMP JUMPDEST PUSH0 PUSH0 PUSH0 SWAP1 SLOAD SWAP1 PUSH2 0x100 EXP SWAP1 DIV PUSH20 0xFFFFFFFFFFFFFFFFFFFFFFFFFFFFFFFFFFFFFFFF AND SWAP1 POP DUP2 PUSH0 PUSH0 PUSH2 0x100 EXP DUP2 SLOAD DUP2 PUSH20 0xFFFFFFFFFFFFFFFFFFFFFFFFFFFFFFFFFFFFFFFF MUL NOT AND SWAP1 DUP4 PUSH20 0xFFFFFFFFFFFFFFFFFFFFFFFFFFFFFFFFFFFFFFFF AND MUL OR SWAP1 SSTORE POP DUP2 PUSH20 0xFFFFFFFFFFFFFFFFFFFFFFFFFFFFFFFFFFFFFFFF AND DUP2 PUSH20 0xFFFFFFFFFFFFFFFFFFFFFFFFFFFFFFFFFFFFFFFF AND PUSH32 0x8BE0079C531659141344CD1FD0A4F28419497F9722A3DAAFE3B4186F6B6457E0 PUSH1 0x40 MLOAD PUSH1 0x40 MLOAD DUP1 SWAP2 SUB SWAP1 LOG3 POP POP JUMP JUMPDEST PUSH0 CALLER SWAP1 POP SWAP1 JUMP JUMPDEST PUSH0 DUP2 MLOAD SWAP1 POP SWAP2 SWAP1 POP JUMP JUMPDEST PUSH0 DUP3 DUP3 MSTORE PUSH1 0x20 DUP3 ADD SWAP1 POP SWAP3 SWAP2 POP POP JUMP JUMPDEST PUSH0 DUP2 SWAP1 POP PUSH1 0x20 DUP3 ADD SWAP1 POP SWAP2 SWAP1 POP JUMP JUMPDEST PUSH0 DUP2 SWAP1 POP SWAP2 SWAP1 POP JUMP JUMPDEST PUSH2 0xBC6 DUP2 PUSH2 0xBB4 JUMP JUMPDEST DUP3 MSTORE POP POP JUMP JUMPDEST PUSH0 DUP2 MLOAD SWAP1 POP SWAP2 SWAP1 POP JUMP JUMPDEST PUSH0 DUP3 DUP3 MSTORE PUSH1 0x20 DUP3 ADD SWAP1 POP SWAP3 SWAP2 POP POP JUMP JUMPDEST DUP3 DUP2 DUP4 MCOPY PUSH0 DUP4 DUP4 ADD MSTORE POP POP POP JUMP JUMPDEST PUSH0 PUSH1 0x1F NOT PUSH1 0x1F DUP4 ADD AND SWAP1 POP SWAP2 SWAP1 POP JUMP JUMPDEST PUSH0 PUSH2 0xC0E DUP3 PUSH2 0xBCC JUMP JUMPDEST PUSH2 0xC18 DUP2 DUP6 PUSH2 0xBD6 JUMP JUMPDEST SWAP4 POP PUSH2 0xC28 DUP2 DUP6 PUSH1 0x20 DUP7 ADD PUSH2 0xBE6 JUMP JUMPDEST PUSH2 0xC31 DUP2 PUSH2 0xBF4 JUMP JUMPDEST DUP5 ADD SWAP2 POP POP SWAP3 SWAP2 POP POP JUMP JUMPDEST PUSH0 DUP2 ISZERO ISZERO SWAP1 POP SWAP2 SWAP1 POP JUMP JUMPDEST PUSH2 0xC50 DUP2 PUSH2 0xC3C JUMP JUMPDEST DUP3 MSTORE POP POP JUMP JUMPDEST PUSH0 PUSH20 0xFFFFFFFFFFFFFFFFFFFFFFFFFFFFFFFFFFFFFFFF DUP3 AND SWAP1 POP SWAP2 SWAP1 POP JUMP JUMPDEST PUSH0 PUSH2 0xC7F DUP3 PUSH2 0xC56 JUMP JUMPDEST SWAP1 POP SWAP2 SWAP1 POP JUMP JUMPDEST PUSH2 0xC8F DUP2 PUSH2 0xC75 JUMP JUMPDEST DUP3 MSTORE POP POP JUMP JUMPDEST PUSH0 PUSH1 0xC0 DUP4 ADD PUSH0 DUP4 ADD MLOAD PUSH2 0xCAA PUSH0 DUP7 ADD DUP3 PUSH2 0xBBD JUMP JUMPDEST POP PUSH1 0x20 DUP4 ADD MLOAD DUP5 DUP3 SUB PUSH1 0x20 DUP7 ADD MSTORE PUSH2 0xCC2 DUP3 DUP3 PUSH2 0xC04 JUMP JUMPDEST SWAP2 POP POP PUSH1 0x40 DUP4 ADD MLOAD PUSH2 0xCD7 PUSH1 0x40 DUP7 ADD DUP3 PUSH2 0xBBD JUMP JUMPDEST POP PUSH1 0x60 DUP4 ADD MLOAD PUSH2 0xCEA PUSH1 0x60 DUP7 ADD DUP3 PUSH2 0xC47 JUMP JUMPDEST POP PUSH1 0x80 DUP4 ADD MLOAD PUSH2 0xCFD PUSH1 0x80 DUP7 ADD DUP3 PUSH2 0xC86 JUMP JUMPDEST POP PUSH1 0xA0 DUP4 ADD MLOAD DUP5 DUP3 SUB PUSH1 0xA0 DUP7 ADD MSTORE PUSH2 0xD15 DUP3 DUP3 PUSH2 0xC04 JUMP JUMPDEST SWAP2 POP POP DUP1 SWAP2 POP POP SWAP3 SWAP2 POP POP JUMP JUMPDEST PUSH0 PUSH2 0xD2D DUP4 DUP4 PUSH2 0xC95 JUMP JUMPDEST SWAP1 POP SWAP3 SWAP2 POP POP JUMP JUMPDEST PUSH0 PUSH1 0x20 DUP3 ADD SWAP1 POP SWAP2 SWAP1 POP JUMP JUMPDEST PUSH0 PUSH2 0xD4B DUP3 PUSH2 0xB8B JUMP JUMPDEST PUSH2 0xD55 DUP2 DUP6 PUSH2 0xB95 JUMP JUMPDEST SWAP4 POP DUP4 PUSH1 0x20 DUP3 MUL DUP6 ADD PUSH2 0xD67 DUP6 PUSH2 0xBA5 JUMP JUMPDEST DUP1 PUSH0 JUMPDEST DUP6 DUP2 LT ISZERO PUSH2 0xDA2 JUMPI DUP5 DUP5 SUB DUP10 MSTORE DUP2 MLOAD PUSH2 0xD83 DUP6 DUP3 PUSH2 0xD22 JUMP JUMPDEST SWAP5 POP PUSH2 0xD8E DUP4 PUSH2 0xD35 JUMP JUMPDEST SWAP3 POP PUSH1 0x20 DUP11 ADD SWAP10 POP POP PUSH1 0x1 DUP2 ADD SWAP1 POP PUSH2 0xD6A JUMP JUMPDEST POP DUP3 SWAP8 POP DUP8 SWAP6 POP POP POP POP POP POP SWAP3 SWAP2 POP POP JUMP JUMPDEST PUSH0 PUSH1 0x20 DUP3 ADD SWAP1 POP DUP2 DUP2 SUB PUSH0 DUP4 ADD MSTORE PUSH2 0xDCC DUP2 DUP5 PUSH2 0xD41 JUMP JUMPDEST SWAP1 POP SWAP3 SWAP2 POP POP JUMP JUMPDEST PUSH0 PUSH1 0x40 MLOAD SWAP1 POP SWAP1 JUMP JUMPDEST PUSH0 PUSH0 REVERT JUMPDEST PUSH0 PUSH0 REVERT JUMPDEST PUSH0 PUSH0 REVERT JUMPDEST PUSH0 PUSH0 REVERT JUMPDEST PUSH32 0x4E487B7100000000000000000000000000000000000000000000000000000000 PUSH0 MSTORE PUSH1 0x41 PUSH1 0x4 MSTORE PUSH1 0x24 PUSH0 REVERT JUMPDEST PUSH2 0xE23 DUP3 PUSH2 0xBF4 JUMP JUMPDEST DUP2 ADD DUP2 DUP2 LT PUSH8 0xFFFFFFFFFFFFFFFF DUP3 GT OR ISZERO PUSH2 0xE42 JUMPI PUSH2 0xE41 PUSH2 0xDED JUMP JUMPDEST JUMPDEST DUP1 PUSH1 0x40 MSTORE POP POP POP JUMP JUMPDEST PUSH0 PUSH2 0xE54 PUSH2 0xDD4 JUMP JUMPDEST SWAP1 POP PUSH2 0xE60 DUP3 DUP3 PUSH2 0xE1A JUMP JUMPDEST SWAP2 SWAP1 POP JUMP JUMPDEST PUSH0 PUSH8 0xFFFFFFFFFFFFFFFF DUP3 GT ISZERO PUSH2 0xE7F JUMPI PUSH2 0xE7E PUSH2 0xDED JUMP JUMPDEST JUMPDEST PUSH2 0xE88 DUP3 PUSH2 0xBF4 JUMP JUMPDEST SWAP1 POP PUSH1 0x20 DUP2 ADD SWAP1 POP SWAP2 SWAP1 POP JUMP JUMPDEST DUP3 DUP2 DUP4 CALLDATACOPY PUSH0 DUP4 DUP4 ADD MSTORE POP POP POP JUMP JUMPDEST PUSH0 PUSH2 0xEB5 PUSH2 0xEB0 DUP5 PUSH2 0xE65 JUMP JUMPDEST PUSH2 0xE4B JUMP JUMPDEST SWAP1 POP DUP3 DUP2 MSTORE PUSH1 0x20 DUP2 ADD DUP5 DUP5 DUP5 ADD GT ISZERO PUSH2 0xED1 JUMPI PUSH2 0xED0 PUSH2 0xDE9 JUMP JUMPDEST JUMPDEST PUSH2 0xEDC DUP5 DUP3 DUP6 PUSH2 0xE95 JUMP JUMPDEST POP SWAP4 SWAP3 POP POP POP JUMP JUMPDEST PUSH0 DUP3 PUSH1 0x1F DUP4 ADD SLT PUSH2 0xEF8 JUMPI PUSH2 0xEF7 PUSH2 0xDE5 JUMP JUMPDEST JUMPDEST DUP2 CALLDATALOAD PUSH2 0xF08 DUP5 DUP3 PUSH1 0x20 DUP7 ADD PUSH2 0xEA3 JUMP JUMPDEST SWAP2 POP POP SWAP3 SWAP2 POP POP JUMP JUMPDEST PUSH2 0xF1A DUP2 PUSH2 0xBB4 JUMP JUMPDEST DUP2 EQ PUSH2 0xF24 JUMPI PUSH0 PUSH0 REVERT JUMPDEST POP JUMP JUMPDEST PUSH0 DUP2 CALLDATALOAD SWAP1 POP PUSH2 0xF35 DUP2 PUSH2 0xF11 JUMP JUMPDEST SWAP3 SWAP2 POP POP JUMP JUMPDEST PUSH0 PUSH0 PUSH1 0x40 DUP4 DUP6 SUB SLT ISZERO PUSH2 0xF51 JUMPI PUSH2 0xF50 PUSH2 0xDDD JUMP JUMPDEST JUMPDEST PUSH0 DUP4 ADD CALLDATALOAD PUSH8 0xFFFFFFFFFFFFFFFF DUP2 GT ISZERO PUSH2 0xF6E JUMPI PUSH2 0xF6D PUSH2 0xDE1 JUMP JUMPDEST JUMPDEST PUSH2 0xF7A DUP6 DUP3 DUP7 ADD PUSH2 0xEE4 JUMP JUMPDEST SWAP3 POP POP PUSH1 0x20 PUSH2 0xF8B DUP6 DUP3 DUP7 ADD PUSH2 0xF27 JUMP JUMPDEST SWAP2 POP POP SWAP3 POP SWAP3 SWAP1 POP JUMP JUMPDEST PUSH2 0xF9E DUP2 PUSH2 0xBB4 JUMP JUMPDEST DUP3 MSTORE POP POP JUMP JUMPDEST PUSH0 PUSH1 0x20 DUP3 ADD SWAP1 POP PUSH2 0xFB7 PUSH0 DUP4 ADD DUP5 PUSH2 0xF95 JUMP JUMPDEST SWAP3 SWAP2 POP POP JUMP JUMPDEST PUSH2 0xFC6 DUP2 PUSH2 0xC75 JUMP JUMPDEST DUP3 MSTORE POP POP JUMP JUMPDEST PUSH0 PUSH1 0x20 DUP3 ADD SWAP1 POP PUSH2 0xFDF PUSH0 DUP4 ADD DUP5 PUSH2 0xFBD JUMP JUMPDEST SWAP3 SWAP2 POP POP JUMP JUMPDEST PUSH0 PUSH1 0x20 DUP3 DUP5 SUB SLT ISZERO PUSH2 0xFFA JUMPI PUSH2 0xFF9 PUSH2 0xDDD JUMP JUMPDEST JUMPDEST PUSH0 PUSH2 0x1007 DUP5 DUP3 DUP6 ADD PUSH2 0xF27 JUMP JUMPDEST SWAP2 POP POP SWAP3 SWAP2 POP POP JUMP JUMPDEST PUSH0 DUP3 DUP3 MSTORE PUSH1 0x20 DUP3 ADD SWAP1 POP SWAP3 SWAP2 POP POP JUMP JUMPDEST PUSH0 PUSH2 0x102A DUP3 PUSH2 0xBCC JUMP JUMPDEST PUSH2 0x1034 DUP2 DUP6 PUSH2 0x1010 JUMP JUMPDEST SWAP4 POP PUSH2 0x1044 DUP2 DUP6 PUSH1 0x20 DUP7 ADD PUSH2 0xBE6 JUMP JUMPDEST PUSH2 0x104D DUP2 PUSH2 0xBF4 JUMP JUMPDEST DUP5 ADD SWAP2 POP POP SWAP3 SWAP2 POP POP JUMP JUMPDEST PUSH2 0x1061 DUP2 PUSH2 0xC3C JUMP JUMPDEST DUP3 MSTORE POP POP JUMP JUMPDEST PUSH0 PUSH1 0xC0 DUP3 ADD SWAP1 POP PUSH2 0x107A PUSH0 DUP4 ADD DUP10 PUSH2 0xF95 JUMP JUMPDEST DUP2 DUP2 SUB PUSH1 0x20 DUP4 ADD MSTORE PUSH2 0x108C DUP2 DUP9 PUSH2 0x1020 JUMP JUMPDEST SWAP1 POP PUSH2 0x109B PUSH1 0x40 DUP4 ADD DUP8 PUSH2 0xF95 JUMP JUMPDEST PUSH2 0x10A8 PUSH1 0x60 DUP4 ADD DUP7 PUSH2 0x1058 JUMP JUMPDEST PUSH2 0x10B5 PUSH1 0x80 DUP4 ADD DUP6 PUSH2 0xFBD JUMP JUMPDEST DUP2 DUP2 SUB PUSH1 0xA0 DUP4 ADD MSTORE PUSH2 0x10C7 DUP2 DUP5 PUSH2 0x1020 JUMP JUMPDEST SWAP1 POP SWAP8 SWAP7 POP POP POP POP POP POP POP JUMP JUMPDEST PUSH0 PUSH0 PUSH1 0x40 DUP4 DUP6 SUB SLT ISZERO PUSH2 0x10EA JUMPI PUSH2 0x10E9 PUSH2 0xDDD JUMP JUMPDEST JUMPDEST PUSH0 PUSH2 0x10F7 DUP6 DUP3 DUP7 ADD PUSH2 0xF27 JUMP JUMPDEST SWAP3 POP POP PUSH1 0x20 DUP4 ADD CALLDATALOAD PUSH8 0xFFFFFFFFFFFFFFFF DUP2 GT ISZERO PUSH2 0x1118 JUMPI PUSH2 0x1117 PUSH2 0xDE1 JUMP JUMPDEST JUMPDEST PUSH2 0x1124 DUP6 DUP3 DUP7 ADD PUSH2 0xEE4 JUMP JUMPDEST SWAP2 POP POP SWAP3 POP SWAP3 SWAP1 POP JUMP JUMPDEST PUSH2 0x1137 DUP2 PUSH2 0xC75 JUMP JUMPDEST DUP2 EQ PUSH2 0x1141 JUMPI PUSH0 PUSH0 REVERT JUMPDEST POP JUMP JUMPDEST PUSH0 DUP2 CALLDATALOAD SWAP1 POP PUSH2 0x1152 DUP2 PUSH2 0x112E JUMP JUMPDEST SWAP3 SWAP2 POP POP JUMP JUMPDEST PUSH0 PUSH1 0x20 DUP3 DUP5 SUB SLT ISZERO PUSH2 0x116D JUMPI PUSH2 0x116C PUSH2 0xDDD JUMP JUMPDEST JUMPDEST PUSH0 PUSH2 0x117A DUP5 DUP3 DUP6 ADD PUSH2 0x1144 JUMP JUMPDEST SWAP2 POP POP SWAP3 SWAP2 POP POP JUMP JUMPDEST PUSH32 0x4E487B7100000000000000000000000000000000000000000000000000000000 PUSH0 MSTORE PUSH1 0x22 PUSH1 0x4 MSTORE PUSH1 0x24 PUSH0 REVERT JUMPDEST PUSH0 PUSH1 0x2 DUP3 DIV SWAP1 POP PUSH1 0x1 DUP3 AND DUP1 PUSH2 0x11C7 JUMPI PUSH1 0x7F DUP3 AND SWAP2 POP JUMPDEST PUSH1 0x20 DUP3 LT DUP2 SUB PUSH2 0x11DA JUMPI PUSH2 0x11D9 PUSH2 0x1183 JUMP JUMPDEST JUMPDEST POP SWAP2 SWAP1 POP JUMP JUMPDEST PUSH32 0x5072696365206D757374206265203E2030000000000000000000000000000000 PUSH0 DUP3 ADD MSTORE POP JUMP JUMPDEST PUSH0 PUSH2 0x1214 PUSH1 0x11 DUP4 PUSH2 0x1010 JUMP JUMPDEST SWAP2 POP PUSH2 0x121F DUP3 PUSH2 0x11E0 JUMP JUMPDEST PUSH1 0x20 DUP3 ADD SWAP1 POP SWAP2 SWAP1 POP JUMP JUMPDEST PUSH0 PUSH1 0x20 DUP3 ADD SWAP1 POP DUP2 DUP2 SUB PUSH0 DUP4 ADD MSTORE PUSH2 0x1241 DUP2 PUSH2 0x1208 JUMP JUMPDEST SWAP1 POP SWAP2 SWAP1 POP JUMP JUMPDEST PUSH0 DUP2 SWAP1 POP DUP2 PUSH0 MSTORE PUSH1 0x20 PUSH0 KECCAK256 SWAP1 POP SWAP2 SWAP1 POP JUMP JUMPDEST PUSH0 PUSH1 0x20 PUSH1 0x1F DUP4 ADD DIV SWAP1 POP SWAP2 SWAP1 POP JUMP JUMPDEST PUSH0 DUP3 DUP3 SHL SWAP1 POP SWAP3 SWAP2 POP POP JUMP JUMPDEST PUSH0 PUSH1 0x8 DUP4 MUL PUSH2 0x12A4 PUSH32 0xFFFFFFFFFFFFFFFFFFFFFFFFFFFFFFFFFFFFFFFFFFFFFFFFFFFFFFFFFFFFFFFF DUP3 PUSH2 0x1269 JUMP JUMPDEST PUSH2 0x12AE DUP7 DUP4 PUSH2 0x1269 JUMP JUMPDEST SWAP6 POP DUP1 NOT DUP5 AND SWAP4 POP DUP1 DUP7 AND DUP5 OR SWAP3 POP POP POP SWAP4 SWAP3 POP POP POP JUMP JUMPDEST PUSH0 DUP2 SWAP1 POP SWAP2 SWAP1 POP JUMP JUMPDEST PUSH0 PUSH2 0x12E9 PUSH2 0x12E4 PUSH2 0x12DF DUP5 PUSH2 0xBB4 JUMP JUMPDEST PUSH2 0x12C6 JUMP JUMPDEST PUSH2 0xBB4 JUMP JUMPDEST SWAP1 POP SWAP2 SWAP1 POP JUMP JUMPDEST PUSH0 DUP2 SWAP1 POP SWAP2 SWAP1 POP JUMP JUMPDEST PUSH2 0x1302 DUP4 PUSH2 0x12CF JUMP JUMPDEST PUSH2 0x1316 PUSH2 0x130E DUP3 PUSH2 0x12F0 JUMP JUMPDEST DUP5 DUP5 SLOAD PUSH2 0x1275 JUMP JUMPDEST DUP3 SSTORE POP POP POP POP JUMP JUMPDEST PUSH0 PUSH0 SWAP1 POP SWAP1 JUMP JUMPDEST PUSH2 0x132D PUSH2 0x131E JUMP JUMPDEST PUSH2 0x1338 DUP2 DUP5 DUP5 PUSH2 0x12F9 JUMP JUMPDEST POP POP POP JUMP JUMPDEST JUMPDEST DUP2 DUP2 LT ISZERO PUSH2 0x135B JUMPI PUSH2 0x1350 PUSH0 DUP3 PUSH2 0x1325 JUMP JUMPDEST PUSH1 0x1 DUP2 ADD SWAP1 POP PUSH2 0x133E JUMP JUMPDEST POP POP JUMP JUMPDEST PUSH1 0x1F DUP3 GT ISZERO PUSH2 0x13A0 JUMPI PUSH2 0x1371 DUP2 PUSH2 0x1248 JUMP JUMPDEST PUSH2 0x137A DUP5 PUSH2 0x125A JUMP JUMPDEST DUP2 ADD PUSH1 0x20 DUP6 LT ISZERO PUSH2 0x1389 JUMPI DUP2 SWAP1 POP JUMPDEST PUSH2 0x139D PUSH2 0x1395 DUP6 PUSH2 0x125A JUMP JUMPDEST DUP4 ADD DUP3 PUSH2 0x133D JUMP JUMPDEST POP POP JUMPDEST POP POP POP JUMP JUMPDEST PUSH0 DUP3 DUP3 SHR SWAP1 POP SWAP3 SWAP2 POP POP JUMP JUMPDEST PUSH0 PUSH2 0x13C0 PUSH0 NOT DUP5 PUSH1 0x8 MUL PUSH2 0x13A5 JUMP JUMPDEST NOT DUP1 DUP4 AND SWAP2 POP POP SWAP3 SWAP2 POP POP JUMP JUMPDEST PUSH0 PUSH2 0x13D8 DUP4 DUP4 PUSH2 0x13B1 JUMP JUMPDEST SWAP2 POP DUP3 PUSH1 0x2 MUL DUP3 OR SWAP1 POP SWAP3 SWAP2 POP POP JUMP JUMPDEST PUSH2 0x13F1 DUP3 PUSH2 0xBCC JUMP JUMPDEST PUSH8 0xFFFFFFFFFFFFFFFF DUP2 GT ISZERO PUSH2 0x140A JUMPI PUSH2 0x1409 PUSH2 0xDED JUMP JUMPDEST JUMPDEST PUSH2 0x1414 DUP3 SLOAD PUSH2 0x11B0 JUMP JUMPDEST PUSH2 0x141F DUP3 DUP3 DUP6 PUSH2 0x135F JUMP JUMPDEST PUSH0 PUSH1 0x20 SWAP1 POP PUSH1 0x1F DUP4 GT PUSH1 0x1 DUP2 EQ PUSH2 0x1450 JUMPI PUSH0 DUP5 ISZERO PUSH2 0x143E JUMPI DUP3 DUP8 ADD MLOAD SWAP1 POP JUMPDEST PUSH2 0x1448 DUP6 DUP3 PUSH2 0x13CD JUMP JUMPDEST DUP7 SSTORE POP PUSH2 0x14AF JUMP JUMPDEST PUSH1 0x1F NOT DUP5 AND PUSH2 0x145E DUP7 PUSH2 0x1248 JUMP JUMPDEST PUSH0 JUMPDEST DUP3 DUP2 LT ISZERO PUSH2 0x1485 JUMPI DUP5 DUP10 ADD MLOAD DUP3 SSTORE PUSH1 0x1 DUP3 ADD SWAP2 POP PUSH1 0x20 DUP6 ADD SWAP5 POP PUSH1 0x20 DUP2 ADD SWAP1 POP PUSH2 0x1460 JUMP JUMPDEST DUP7 DUP4 LT ISZERO PUSH2 0x14A2 JUMPI DUP5 DUP10 ADD MLOAD PUSH2 0x149E PUSH1 0x1F DUP10 AND DUP3 PUSH2 0x13B1 JUMP JUMPDEST DUP4 SSTORE POP JUMPDEST PUSH1 0x1 PUSH1 0x2 DUP9 MUL ADD DUP9 SSTORE POP POP POP JUMPDEST POP POP POP POP POP POP JUMP JUMPDEST PUSH32 0x4E487B7100000000000000000000000000000000000000000000000000000000 PUSH0 MSTORE PUSH1 0x11 PUSH1 0x4 MSTORE PUSH1 0x24 PUSH0 REVERT JUMPDEST PUSH0 PUSH2 0x14EE DUP3 PUSH2 0xBB4 JUMP JUMPDEST SWAP2 POP PUSH2 0x14F9 DUP4 PUSH2 0xBB4 JUMP JUMPDEST SWAP3 POP DUP3 DUP3 SUB SWAP1 POP DUP2 DUP2 GT ISZERO PUSH2 0x1511 JUMPI PUSH2 0x1510 PUSH2 0x14B7 JUMP JUMPDEST JUMPDEST SWAP3 SWAP2 POP POP JUMP JUMPDEST PUSH0 PUSH1 0x40 DUP3 ADD SWAP1 POP DUP2 DUP2 SUB PUSH0 DUP4 ADD MSTORE PUSH2 0x152F DUP2 DUP6 PUSH2 0x1020 JUMP JUMPDEST SWAP1 POP PUSH2 0x153E PUSH1 0x20 DUP4 ADD DUP5 PUSH2 0xF95 JUMP JUMPDEST SWAP4 SWAP3 POP POP POP JUMP JUMPDEST PUSH32 0x4974656D20646F6573206E6F7420657869737400000000000000000000000000 PUSH0 DUP3 ADD MSTORE POP JUMP JUMPDEST PUSH0 PUSH2 0x1579 PUSH1 0x13 DUP4 PUSH2 0x1010 JUMP JUMPDEST SWAP2 POP PUSH2 0x1584 DUP3 PUSH2 0x1545 JUMP JUMPDEST PUSH1 0x20 DUP3 ADD SWAP1 POP SWAP2 SWAP1 POP JUMP JUMPDEST PUSH0 PUSH1 0x20 DUP3 ADD SWAP1 POP DUP2 DUP2 SUB PUSH0 DUP4 ADD MSTORE PUSH2 0x15A6 DUP2 PUSH2 0x156D JUMP JUMPDEST SWAP1 POP SWAP2 SWAP1 POP JUMP JUMPDEST PUSH32 0x4E487B7100000000000000000000000000000000000000000000000000000000 PUSH0 MSTORE PUSH1 0x32 PUSH1 0x4 MSTORE PUSH1 0x24 PUSH0 REVERT JUMPDEST PUSH32 0x4974656D20616C72656164792067696674656421000000000000000000000000 PUSH0 DUP3 ADD MSTORE POP JUMP JUMPDEST PUSH0 PUSH2 0x160E PUSH1 0x14 DUP4 PUSH2 0x1010 JUMP JUMPDEST SWAP2 POP PUSH2 0x1619 DUP3 PUSH2 0x15DA JUMP JUMPDEST PUSH1 0x20 DUP3 ADD SWAP1 POP SWAP2 SWAP1 POP JUMP JUMPDEST PUSH0 PUSH1 0x20 DUP3 ADD SWAP1 POP DUP2 DUP2 SUB PUSH0 DUP4 ADD MSTORE PUSH2 0x163B DUP2 PUSH2 0x1602 JUMP JUMPDEST SWAP1 POP SWAP2 SWAP1 POP JUMP JUMPDEST PUSH32 0x496E73756666696369656E74204554482073656E7420666F7220746869732069 PUSH0 DUP3 ADD MSTORE PUSH32 0x74656D0000000000000000000000000000000000000000000000000000000000 PUSH1 0x20 DUP3 ADD MSTORE POP JUMP JUMPDEST PUSH0 PUSH2 0x169C PUSH1 0x23 DUP4 PUSH2 0x1010 JUMP JUMPDEST SWAP2 POP PUSH2 0x16A7 DUP3 PUSH2 0x1642 JUMP JUMPDEST PUSH1 0x40 DUP3 ADD SWAP1 POP SWAP2 SWAP1 POP JUMP JUMPDEST PUSH0 PUSH1 0x20 DUP3 ADD SWAP1 POP DUP2 DUP2 SUB PUSH0 DUP4 ADD MSTORE PUSH2 0x16C9 DUP2 PUSH2 0x1690 JUMP JUMPDEST SWAP1 POP SWAP2 SWAP1 POP JUMP JUMPDEST PUSH0 DUP2 SWAP1 POP SWAP3 SWAP2 POP POP JUMP JUMPDEST POP JUMP JUMPDEST PUSH0 PUSH2 0x16E8 PUSH0 DUP4 PUSH2 0x16D0 JUMP JUMPDEST SWAP2 POP PUSH2 0x16F3 DUP3 PUSH2 0x16DA JUMP JUMPDEST PUSH0 DUP3 ADD SWAP1 POP SWAP2 SWAP1 POP JUMP JUMPDEST PUSH0 PUSH2 0x1707 DUP3 PUSH2 0x16DD JUMP JUMPDEST SWAP2 POP DUP2 SWAP1 POP SWAP2 SWAP1 POP JUMP JUMPDEST PUSH32 0x5472616E7366657220746F206F776E6572206661696C65640000000000000000 PUSH0 DUP3 ADD MSTORE POP JUMP JUMPDEST PUSH0 PUSH2 0x1745 PUSH1 0x18 DUP4 PUSH2 0x1010 JUMP JUMPDEST SWAP2 POP PUSH2 0x1750 DUP3 PUSH2 0x1711 JUMP JUMPDEST PUSH1 0x20 DUP3 ADD SWAP1 POP SWAP2 SWAP1 POP JUMP JUMPDEST PUSH0 PUSH1 0x20 DUP3 ADD SWAP1 POP DUP2 DUP2 SUB PUSH0 DUP4 ADD MSTORE PUSH2 0x1772 DUP2 PUSH2 0x1739 JUMP JUMPDEST SWAP1 POP SWAP2 SWAP1 POP JUMP JUMPDEST PUSH0 PUSH1 0x20 DUP3 ADD SWAP1 POP DUP2 DUP2 SUB PUSH0 DUP4 ADD MSTORE PUSH2 0x1791 DUP2 DUP5 PUSH2 0x1020 JUMP JUMPDEST SWAP1 POP SWAP3 SWAP2 POP POP JUMP INVALID LOG2 PUSH5 0x6970667358 0x22 SLT KECCAK256 DUP6 PUSH19 0xBAF952D5491C9AD082F540265ED2FC6F417F10 0xBC SWAP14 MSIZE 0xCC INVALID 0xAE CALLDATALOAD 0xCD LOG0 DATALOADN 0x4D64 PUSH20 0x6F6C634300081F00330000000000000000000000 "
		},
		"gasEstimates": {
			"creation": {
				"codeDepositCost": "1219000",
				"executionCost": "infinite",
				"totalCost": "infinite"
			},
			"external": {
				"addItem(string,uint256)": "infinite",
				"getAllItems()": "infinite",
				"getItemCount()": "2507",
				"giftItem(uint256,string)": "infinite",
				"items(uint256)": "infinite",
				"owner()": "2514",
				"renounceOwnership()": "infinite",
				"transferOwnership(address)": "infinite"
			}
		},
		"methodIdentifiers": {
			"addItem(string,uint256)": "62d6bbdf",
			"getAllItems()": "4ba1d6aa",
			"getItemCount()": "7749cf23",
			"giftItem(uint256,string)": "ed86827c",
			"items(uint256)": "bfb231d2",
			"owner()": "8da5cb5b",
			"renounceOwnership()": "715018a6",
			"transferOwnership(address)": "f2fde38b"
		}
	},
	"abi": [
		{
			"inputs": [],
			"stateMutability": "nonpayable",
			"type": "constructor"
		},
		{
			"inputs": [
				{
					"internalType": "address",
					"name": "owner",
					"type": "address"
				}
			],
			"name": "OwnableInvalidOwner",
			"type": "error"
		},
		{
			"inputs": [
				{
					"internalType": "address",
					"name": "account",
					"type": "address"
				}
			],
			"name": "OwnableUnauthorizedAccount",
			"type": "error"
		},
		{
			"anonymous": false,
			"inputs": [
				{
					"indexed": true,
					"internalType": "uint256",
					"name": "id",
					"type": "uint256"
				},
				{
					"indexed": false,
					"internalType": "string",
					"name": "name",
					"type": "string"
				},
				{
					"indexed": false,
					"internalType": "uint256",
					"name": "price",
					"type": "uint256"
				}
			],
			"name": "ItemAdded",
			"type": "event"
		},
		{
			"anonymous": false,
			"inputs": [
				{
					"indexed": true,
					"internalType": "uint256",
					"name": "id",
					"type": "uint256"
				},
				{
					"indexed": true,
					"internalType": "address",
					"name": "guest",
					"type": "address"
				},
				{
					"indexed": false,
					"internalType": "string",
					"name": "message",
					"type": "string"
				}
			],
			"name": "ItemGifted",
			"type": "event"
		},
		{
			"anonymous": false,
			"inputs": [
				{
					"indexed": true,
					"internalType": "address",
					"name": "previousOwner",
					"type": "address"
				},
				{
					"indexed": true,
					"internalType": "address",
					"name": "newOwner",
					"type": "address"
				}
			],
			"name": "OwnershipTransferred",
			"type": "event"
		},
		{
			"inputs": [
				{
					"internalType": "string",
					"name": "_name",
					"type": "string"
				},
				{
					"internalType": "uint256",
					"name": "_price",
					"type": "uint256"
				}
			],
			"name": "addItem",
			"outputs": [],
			"stateMutability": "nonpayable",
			"type": "function"
		},
		{
			"inputs": [],
			"name": "getAllItems",
			"outputs": [
				{
					"components": [
						{
							"internalType": "uint256",
							"name": "id",
							"type": "uint256"
						},
						{
							"internalType": "string",
							"name": "name",
							"type": "string"
						},
						{
							"internalType": "uint256",
							"name": "price",
							"type": "uint256"
						},
						{
							"internalType": "bool",
							"name": "isPurchased",
							"type": "bool"
						},
						{
							"internalType": "address",
							"name": "giftedBy",
							"type": "address"
						},
						{
							"internalType": "string",
							"name": "guestMessage",
							"type": "string"
						}
					],
					"internalType": "struct GiftRegistry.Item[]",
					"name": "",
					"type": "tuple[]"
				}
			],
			"stateMutability": "view",
			"type": "function"
		},
		{
			"inputs": [],
			"name": "getItemCount",
			"outputs": [
				{
					"internalType": "uint256",
					"name": "",
					"type": "uint256"
				}
			],
			"stateMutability": "view",
			"type": "function"
		},
		{
			"inputs": [
				{
					"internalType": "uint256",
					"name": "_id",
					"type": "uint256"
				},
				{
					"internalType": "string",
					"name": "_message",
					"type": "string"
				}
			],
			"name": "giftItem",
			"outputs": [],
			"stateMutability": "payable",
			"type": "function"
		},
		{
			"inputs": [
				{
					"internalType": "uint256",
					"name": "",
					"type": "uint256"
				}
			],
			"name": "items",
			"outputs": [
				{
					"internalType": "uint256",
					"name": "id",
					"type": "uint256"
				},
				{
					"internalType": "string",
					"name": "name",
					"type": "string"
				},
				{
					"internalType": "uint256",
					"name": "price",
					"type": "uint256"
				},
				{
					"internalType": "bool",
					"name": "isPurchased",
					"type": "bool"
				},
				{
					"internalType": "address",
					"name": "giftedBy",
					"type": "address"
				},
				{
					"internalType": "string",
					"name": "guestMessage",
					"type": "string"
				}
			],
			"stateMutability": "view",
			"type": "function"
		},
		{
			"inputs": [],
			"name": "owner",
			"outputs": [
				{
					"internalType": "address",
					"name": "",
					"type": "address"
				}
			],
			"stateMutability": "view",
			"type": "function"
		},
		{
			"inputs": [],
			"name": "renounceOwnership",
			"outputs": [],
			"stateMutability": "nonpayable",
			"type": "function"
		},
		{
			"inputs": [
				{
					"internalType": "address",
					"name": "newOwner",
					"type": "address"
				}
			],
			"name": "transferOwnership",
			"outputs": [],
			"stateMutability": "nonpayable",
			"type": "function"
		}
	]
}